:107636001DEF3BF0720ED36E926A936A946A956A56
:1076460096809692896A8A6A8B6A8C6A8D6A2CEF12
:107656003BF019EC3CF0DBEC3FF013EC3CF033EC88
:107666003CF0EEEC3FF013EC3CF04DEC3CF0EEEC75
:107676003FF013EC3CF067EC3CF0EEEC3FF013EC23
:107686003CF081EC3CF0EEEC3FF013EC3CF09BEC74
:107696003CF0EEEC3FF013EC3CF0B5EC3CF0EEECDD
:1076A6003FF013EC3CF0CFEC3CF0EEEC3FF013EC8B
:1076B6003CF0E9EC3CF0EEEC3FF013EC3CF003EC74
:1076C6003DF0EEEC3FF013EC3CF01DEC3DF0EEEC43
:1076D6003FF013EC3CF037EC3DF0EEEC3FF013ECF2
:1076E6003CF051EC3DF0EEEC3FF013EC3CF06BEC73
:1076F6003DF0EEEC3FF013EC3CF085EC3DF0DBECBE
:107706003FF013EC3CF084A02CEF3BF08BEF3BF00A
:107716009FEC3DF0DBEC3FF013EC3CF0B9EC3DF0B8
:10772600EEEC3FF013EC3CF0EDEC3DF0EEEC3FF010
:1077360013EC3CF007EC3EF0EEEC3FF013EC3CF0C3
:1077460021EC3EF0EEEC3FF013EC3CF03BEC3EF06F
:10775600EEEC3FF013EC3CF055EC3EF0EEEC3FF077
:1077660013EC3CF06FEC3EF0EEEC3FF013EC3CF02B
:1077760089EC3EF0EEEC3FF013EC3CF0A3EC3EF06F
:10778600DBEC3FF013EC3CF084A08BEF3BF0CCEF4E
:107796003BF0BDEC3EF0DBEC3FF013EC3CF0D7ECFD
:1077A6003EF0EEEC3FF013EC3CF0F1EC3EF0EEEC8C
:1077B6003FF013EC3CF00BEC3FF0EEEC3FF013EC3B
:1077C6003CF025EC3FF0EEEC3FF013EC3CF03FECE8
:1077D6003FF0EEEC3FF013EC3CF059EC3FF0EEECF2
:1077E6003FF013EC3CF073EC3FF0EEEC3FF013ECA3
:1077F6003CF08DEC3FF0EEEC3FF013EC3CF0A7ECE8
:107806003FF0EEEC3FF013EC3CF0C1EC3FF0DBEC6C
:107816003FF013EC3CF084A0CCEF3BF02CEF3BF0B8
:10782600896A8A6A8B6A8C6A8D921200899089822B
:10783600899489868998899A8D828A908A828A947F
:107846008A968A888A8A8A8C8A9E8B908B828B9467
:107856008C888B9A8B9C8B8E8C9A8C8C8C9E12002F
:1078660089808992898489968988898A8D928A8075
:107876008A928A848A868A888A8A8A9C8A8E8B8059
:107886008B928B848C988B8A8B8C8B9E8C8A8C9C0F
:107896008C8E120089908982899489868988899A32
:1078A6008D828A908A828A948A868A888A9A8A8C23
:1078B6008A9E8B908B828B948C888B9A8B9C8B8EDA
:1078C6008C9A8C8C8C8E1200898089928984898608
:1078D6008988898A8D928A808A928A948A868A98E9
:1078E6008A8A8A9C8A9E8B808B928B848C988B9AB0
:1078F6008B8C8B9E8C8A8C8C8C8E120089908982C4
:10790600898489868988899A8D828A908A928A84CE
:107916008A968A888A9A8A9C8A8E8B908B828B9486
:107926008C988B8A8B9C8B8E8C8A8C8C8C8E12007E
:1079360089808982898489868998898A8D928A90A4
:107946008A828A948A868A988A9A8A8C8A9E8B8068
:107956008B928B948C888B9A8B8C8B8E8C8A8C8C4E
:107966008C9E120089808982898489968988899A61
:107976008D928A808A928A848A968A988A8A8A9C32
:107986008A8E8B908B928B848C988B8A8B8C8B8E29
:107996008C8A8C9C8C8E1200898089828994898637
:1079A6008998899A8D828A908A828A948A968A8808
:1079B6008A9A8A8C8A9E8B908B828B948C888B9ADF
:1079C6008B8C8B8E8C9A8C8C8C8E120089808992F3
:1079D600898489968998898A8D928A808A928A94DE
:1079E6008A868A988A8A8A9C8A9E8B808B928B84C6
:1079F6008C988B9A8B8C8B9E8C8A8C8C8C8E12009E
:107A060089908982899489968998899A8D828A90A3
:107A16008A928A948A968A888A9A8A9C8A9E8B9067
:107A26008B828B948C988B9A8B9C8B8E8C8A8C8C6D
:107A36008C9E120089808992899489968998898A70
:107A46008D928A908A928A948A868A988A9A8A9C41
:107A56008A9E8B808B928B948C988B9A8B8C8B8E38
:107A66008C8A8C9C8C9E1200899089928994899626
:107A76008988899A8D928A908A928A848A968A9827
:107A86008A9A8A9C8A8E8B908B928B948C988B8AFE
:107A96008B8C8B8E8C9A8C9C8C8E12008990899202
:107AA600899489868988899A8D928A908A828A940D
:107AB6008A968A988A9A8A8C8A8E8B908B928B94D5
:107AC6008C888B9A8B8C8B9E8C9A8C8C8C9E1200BD
:107AD60089908992898489868988899A8D928A80F3
:107AE6008A928A848A968A988A8A8A8C8A8E8B90C7
:107AF6008B928B848C988B8A8B9C8B9E8C8A8C9C8D
:107B06008C8E120089908982898489868998899ABF
:107B16008D828A908A828A948A968A888A8A8A8CB0
:107B26008A9E8B908B828B948C888B9A8B9C8B8E67
:107B36008C9A8C8C8C9E1200899089828984898685
:107B46008998899A8D828A908A828A948A968A8866
:107B56008A8A8A8C8A9E8B908B828B948C888B9A4D
:107B66008B9C8B8E8C9A8C8C8C9E12008990898231
:107B7600898489868998899A8D828A908A828A944C
:107B86008A968A888A8A8A8C8A9E8B908B828B9424
:107B96008C888B9A8B9C8B8E8C9A8C8C8C9E1200EC
:107BA60089908982898489868998899A8D828A9022
:107BB6008A828A948A968A888A8A8A8C8A9E8B90F6
:107BC6008B828B948C888B9A8B9C8B8E8C9A8C8CCC
:107BD6008C9E120089908982898489868998899ADF
:107BE6008D828A908A828A948A968A888A8A8A8CE0
:107BF6008A9E8B908B828B948C888B9A8B9C8B8E97
:107C06008C9A8C8C8C9E12008990898289848986B4
:107C16008998899A8D828A908A828A948A968A8895
:107C26008A8A8A8C8A9E8B908B828B948C888B9A7C
:107C36008B9C8B8E8C9A8C8C8C9E12008990898260
:107C4600898489868998899A8D828A908A828A947B
:107C56008A968A888A8A8A8C8A9E8B908B828B9453
:107C66008C888B9A8B9C8B8E8C9A8C8C8C9E12001B
:107C760089908982898489868998899A8D828A9051
:107C86008A828A948A968A888A8A8A8C8A9E8B9025
:107C96008B828B948C888B9A8B9C8B8E8C9A8C8CFB
:107CA6008C9E120089908982898489868998899A0E
:107CB6008D828A908A828A948A968A888A8A8A8C0F
:107CC6008A9E8B908B828B948C888B9A8B9C8B8EC6
:107CD6008C9A8C8C8C9E12008990898289848986E4
:107CE6008998899A8D828A908A828A948A968A88C5
:107CF6008A8A8A8C8A9E8B908B828B948C888B9AAC
:107D06008B9C8B8E8C9A8C8C8C9E1200899089828F
:107D1600898489868998899A8D828A908A828A94AA
:107D26008A968A888A8A8A8C8A9E8B908B828B9482
:107D36008C888B9A8B9C8B8E8C9A8C8C8C9E12004A
:107D460089908982898489868998899A8D828A9080
:107D56008A828A948A968A888A8A8A8C8A9E8B9054
:107D66008B828B948C888B9A8B9C8B8E8C9A8C8C2A
:107D76008C9E120089808992899489968988898A3D
:107D86008D828A908A828A848A868A988A8A8A9C3E
:107D96008A8E8B808B928B948C988B8A8B8C8B9E05
:107DA6008C9A8C9C8C8E12008990899289948986F3
:107DB6008998898A8D928A808A828A948A968A8804
:107DC6008A9A8A8C8A9E8B908B928B948C888B9ABB
:107DD6008B9C8B9E8C9A8C8C8C9E1200899089929F
:107DE600898489968988899A8D828A808A928A84EA
:107DF6008A868A988A8A8A9C8A8E8B908B928B84B2
:107E06008C988B8A8B9C8B9E8C8A8C9C8C8E120079
:107E160089908982899489868988898A8D828A90BF
:107E26008A828A948A968A888A9A8A8C8A8E8B9083
:107E36008B828B948C888B9A8B9C8B8E8C9A8C8C59
:107E46008C9E120089808992898489868988898A8C
:107E56008D928A808A928A848A868A988A8A8A8C6D
:107E66008A8E8B808B928B848C988B8A8B8C8B9E44
:107E76008C8A8C9C8C8E1200899089828984898652
:107E86008998899A8D828A908A828A948A968A8823
:107E96008A8A8A8C8A9E8B908B828B948C888B9A0A
:107EA6008B9C8B8E8C9A8C8C8C9E120089808982FE
:107EB600898489968988898A8D928A808A928A8419
:107EC6008A868A888A8A8A9C8A8E8B808B928B8401
:107ED6008C988B8A8B8C8B9E8C8A8C9C8C8E1200B9
:107EE60089808982899489868998899A8D828A90DF
:107EF6008A828A948A868A888A9A8A8C8A9E8B90B3
:107F06008B828B948C888B9A8B9C8B8E8C9A8C8C88
:107F16008C8E120089808992898489968998898AAB
:107F26008D928A808A928A948A868A988A8A8A9C7C
:107F36008A9E8B808B928B848C988B9A8B8C8B9E53
:107F46008C8A8C8C8C8E1200899089828994899671
:107F56008988899A8D828A908A928A848A968A8862
:107F66008A9A8A9C8A8E8B908B828B948C988B8A29
:107F76008B9C8B8E8C8A8C8C8C8E1200898089923D
:107F8600899489868998898A8D928A908A828A9428
:107F96008A868A988A9A8A8C8A9E8B808B928B9400
:107FA6008C888B9A8B8C8B8E8C8A8C8C8C9E1200F8
:107FB600080E606FC80E616FFA0E626F0000000057
:107FC6000000622FE1EF3FF0612FDFEF3FF0602FFF
:107FD600DDEF3FF01200030E606FC80E616FC80E32
:107FE600626F00000000622FF4EF3FF0612FF2EFA6
:0A7FF6003FF0602FF0EF3FF01200A3
:020000040030CA
:0400000000091F1EB6
:020005008181F7
:060008000FC00FE00F40E5
:00000001FF
