:107F7800BEEF3FF0720ED36E926A936A946A956A66
:107F8800896A8A6A8B6A8C6AD4EC3FF0EDEC3FF020
:107F9800896A8A6A8B6A8C6AEDEC3FF0C8EF3FF019
:107FA80089908982898489868998899A898C8A9016
:107FB8008A828A948A968A888A8A8A8C8A9E8B90F0
:107FC8008B828B948B888B9A8B9C8B8E8C908C82DB
:107FD8008C94080E606FC80E616FFA0E626F000015
:107FE80000000000622FF3EF3FF0612FF1EF3FF048
:087FF800602FEFEF3FF01200D3
:020000040030CA
:0400000000091F1EB6
:020005008181F7
:060008000FC00FE00F40E5
:00000001FF
