:1079080086EF3CF0720ED36E926A936A946A956A17
:10791800896A8A6A8B6A8C6A92EF3CF037EC3DF090
:10792800DBEC3FF032EC3DF051EC3DF0EEEC3FF09B
:1079380032EC3DF06BEC3DF0EEEC3FF032EC3DF01C
:1079480085EC3DF0EEEC3FF032EC3DF09FEC3DF085
:10795800EEEC3FF032EC3DF0B9EC3DF0EEEC3FF0F0
:1079680032EC3DF0D3EC3DF0EEEC3FF032EC3DF084
:10797800EDEC3DF0EEEC3FF032EC3DF007EC3EF084
:10798800EEEC3FF032EC3DF021EC3EF0EEEC3FF057
:1079980032EC3DF03BEC3EF0EEEC3FF032EC3DF0EB
:1079A80055EC3EF0EEEC3FF032EC3DF06FEC3EF083
:1079B800EEEC3FF032EC3DF089EC3EF0EEEC3FF0BF
:1079C80032EC3DF0A3EC3EF0DBEC3FF032EC3DF066
:1079D80081A892EF3CF0F1EF3CF0BDEC3EF0DBEC1F
:1079E8003FF032EC3DF0D7EC3EF0EEEC3FF032ECFD
:1079F8003DF00BEC3FF0EEEC3FF032EC3DF025ECC7
:107A08003FF0EEEC3FF032EC3DF03FEC3FF0EEECB7
:107A18003FF032EC3DF059EC3FF0EEEC3FF032EC49
:107A28003DF073EC3FF0EEEC3FF032EC3DF08DECC6
:107A38003FF0EEEC3FF032EC3DF0A7EC3FF0EEEC1F
:107A48003FF032EC3DF0C1EC3FF0EEEC3FF032ECB1
:107A58003DF081A8F1EF3CF092EF3CF0896A8A6A28
:107A68008B6A8C6A120089908982899489868998A0
:107A7800899A898C8A908A828A948A968A888A8A3C
:107A88008A8C8A9E8B908B828B948C888B9A8B9C09
:107A98008B8E8C9A8C8C8C9E12008980899289841A
:107AA80089968988898A899C8A808A928A848A8622
:107AB8008A888A8A8A9C8A8E8B808B928B848C98FF
:107AC8008B8A8B8C8B9E8C8A8C9C8C8E12008990D6
:107AD8008982899489868988899A898C8A908A82F8
:107AE8008A948A868A888A9A8A8C8A9E8B908B82C4
:107AF8008B948C888B9A8B9C8B8E8C9A8C8C8C8E8E
:107B0800120089808992898489868988898A899CD2
:107B18008A808A928A948A868A988A8A8A9C8A9E85
:107B28008B808B928B848C988B9A8B8C8B9E8C8A77
:107B38008C8C8C8E120089908982898489868988A8
:107B4800899A898C8A908A928A848A968A888A9A5B
:107B58008A9C8A8E8B908B828B948C988B8A8B9C38
:107B68008B8E8C8A8C8C8C8E120089808982898479
:107B780089868998898A899C8A908A828A948A8641
:107B88008A988A9A8A8C8A9E8B808B928B948C880E
:107B98008B9A8B8C8B8E8C8A8C8C8C9E1200898015
:107BA8008982898489968988899A899C8A808A9217
:107BB8008A848A968A988A8A8A9C8A8E8B908B92E3
:107BC8008B848C988B8A8B8C8B8E8C8A8C9C8C8EDD
:107BD800120089808982899489868998899A898CF2
:107BE8008A908A828A948A968A888A9A8A8C8A9EB5
:107BF8008B908B828B948C888B9A8B8C8B8E8C9AA7
:107C08008C8C8C8E120089808992898489968998B7
:107C1800898A899C8A808A928A948A868A988A8A9A
:107C28008A9C8A9E8B808B928B848C988B9A8B8C67
:107C38008B9E8C8A8C8C8C8E120089908982899478
:107C480089968998899A898C8A908A928A948A9640
:107C58008A888A9A8A9C8A9E8B908B828B948C982D
:107C68008B9A8B9C8B8E8C8A8C8C8C9E1200898034
:107C78008992899489968998898A899C8A908A9216
:107C88008A948A868A988A9A8A9C8A9E8B808B9202
:107C98008B948C988B9A8B8C8B8E8C8A8C9C8C9EDC
:107CA800120089908992899489968988899A899CF1
:107CB8008A908A928A848A968A988A9A8A9C8A8ED4
:107CC8008B908B928B948C988B8A8B8C8B8E8C9AC6
:107CD8008C9C8C8E120089908992899489868988D7
:107CE800899A899C8A908A828A948A968A988A9A9A
:107CF8008A8C8A8E8B908B928B948C888B9A8B8CA7
:107D08008B9E8C9A8C8C8C9E120089908992898487
:107D180089868988899A899C8A808A928A848A969F
:107D28008A988A8A8A8C8A8E8B908B928B848C987C
:107D38008B8A8B9C8B9E8C8A8C9C8C8E1200899053
:107D48008982898489868998899A898C8A908A8285
:107D58008A948A968A888A8A8A8C8A9E8B908B8251
:107D68008B948C888B9A8B9C8B8E8C9A8C8C8C9E0B
:107D7800120089908982898489868998899A898C50
:107D88008A908A828A948A968A888A8A8A8C8A9E23
:107D98008B908B828B948C888B9A8B9C8B8E8C9AF5
:107DA8008C8C8C9E12008990898289848986899816
:107DB800899A898C8A908A828A948A968A888A8AF9
:107DC8008A8C8A9E8B908B828B948C888B9A8B9CC6
:107DD8008B8E8C9A8C8C8C9E1200899089828984D7
:107DE80089868998899A898C8A908A828A948A96BF
:107DF8008A888A8A8A8C8A9E8B908B828B948C88BC
:107E08008B9A8B9C8B8E8C9A8C8C8C9E1200899072
:107E18008982898489868998899A898C8A908A82B4
:107E28008A948A968A888A8A8A8C8A9E8B908B8280
:107E38008B948C888B9A8B9C8B8E8C9A8C8C8C9E3A
:107E4800120089908982898489868998899A898C7F
:107E58008A908A828A948A968A888A8A8A8C8A9E52
:107E68008B908B828B948C888B9A8B9C8B8E8C9A24
:107E78008C8C8C9E12008990898289848986899845
:107E8800899A898C8A908A828A948A968A888A8A28
:107E98008A8C8A9E8B908B828B948C888B9A8B9CF5
:107EA8008B8E8C9A8C8C8C9E120089908982898406
:107EB80089868998899A898C8A908A828A948A96EE
:107EC8008A888A8A8A8C8A9E8B908B828B948C88EB
:107ED8008B9A8B9C8B8E8C9A8C8C8C9E12008990A2
:107EE8008982898489868998899A898C8A908A82E4
:107EF8008A948A968A888A8A8A8C8A9E8B908B82B0
:107F08008B948C888B9A8B9C8B8E8C9A8C8C8C9E69
:107F1800120089908982898489868998899A898CAE
:107F28008A908A828A948A968A888A8A8A8C8A9E81
:107F38008B908B828B948C888B9A8B9C8B8E8C9A53
:107F48008C8C8C9E12008990898289848986899874
:107F5800899A898C8A908A828A948A968A888A8A57
:107F68008A8C8A9E8B908B828B948C888B9A8B9C24
:107F78008B8E8C9A8C8C8C9E120089908982898435
:107F880089868998899A898C8A908A828A948A961D
:107F98008A888A8A8A8C8A9E8B908B828B948C881A
:107FA8008B9A8B9C8B8E8C9A8C8C8C9E1200080ED4
:107FB800606FC80E616FFA0E626F0000000000006B
:107FC800622FE1EF3FF0612FDFEF3FF0602FDDEF31
:107FD8003FF01200020E606FC80E616FFA0E626FFA
:107FE80000000000622FF4EF3FF0612FF2EF3FF046
:087FF800602FF0EF3FF01200D2
:020000040030CA
:0400000000091F1EB6
:020005008181F7
:060008000FC00FE00F40E5
:00000001FF
