:107F8000C2EF3FF0720ED36E100E936E8A6A81B804
:107F9000CEEF3FF0D1EC3FF0C7EF3FF08A6AC7EF7A
:107FA0003FF0010E8A6EEDEC3FF0020E8A6EEDECB2
:107FB0003FF0040E8A6EEDEC3FF0080E8A6EEDEC99
:107FC0003FF0040E8A6EEDEC3FF0020E8A6EEDEC8F
:107FD0003FF08A6AEDEC3FF01200080E606FC80EA9
:107FE000616FFA0E626F000000000000622FF3EF75
:107FF0003FF0612FF1EF3FF0602FEFEF3FF0120005
:020000040030CA
:0400000000091F1EB6
:020005008181F7
:060008000FC00FE00F40E5
:00000001FF
