:107F4800A6EF3FF0720ED36E936A8A6AAEEC3FF0EA
:107F5800ACEF3FF0010E8A6EEDEC3FF0030E8A6E37
:107F6800EDEC3FF0070E8A6EEDEC3FF00F0E8A6ED7
:107F7800EDEC3FF08A6AEDEC3FF0AEEF3FF0010E1A
:107F88008A6EEDEC3FF0020E8A6EEDEC3FF0040EC7
:107F98008A6EEDEC3FF0080E8A6EEDEC3FF0040EB1
:107FA8008A6EEDEC3FF0020E8A6EEDEC3FF08A6AC5
:107FB800EDEC3FF0AEEF3FF0050E8A6EEDEC3FF0D2
:107FC8000A0E8A6EEDEC3FF08A6AEDEC3FF0AEEFF8
:107FD8003FF0080E606FC80E616FFA0E626F000006
:107FE80000000000622FF3EF3FF0612FF1EF3FF048
:087FF800602FEFEF3FF01200D3
:020000040030CA
:0400000000091F1EB6
:020005008181F7
:060008000FC00FE00F40E5
:00000001FF
