:107EE60075EF3FF0720ED36E100E936E8A6A7CEFBA
:107EF6003FF0080E8A6EEEEC3FF0040E8A6EEEEC52
:107F06003FF0020E8A6EEEEC3FF0010E8A6EEEEC4A
:107F16003FF0090E8A6EEEEC3FF0050E8A6EEEEC2F
:107F26003FF0030E8A6EEEEC3FF00B0E8A6EEEEC1F
:107F36003FF0070E8A6EEEEC3FF00F0E8A6EEEEC07
:107F46003FF08A6AEEEC3FF081A87CEF3FF0ACEFA1
:107F56003FF0010E8A6EEEEC3FF0020E8A6EEEECFA
:107F66003FF0040E8A6EEEEC3FF0080E8A6EEEECE1
:107F76003FF0040E8A6EEEEC3FF0020E8A6EEEECD7
:107F86003FF08A6AEEEC3FF081A8ACEF3FF0CCEF11
:107F96003FF0050E8A6EEEEC3FF00A0E8A6EEEECAE
:107FA6003FF08A6AEEEC3FF081A8CCEF3FF07CEF21
:107FB6003FF0080E606FC80E616FFA0E626F000028
:107FC6000000622FE2EF3FF0612FE0EF3FF0602FFD
:107FD600DEEF3FF01200040E606FC80E616FFA0EFE
:107FE600626F00000000622FF4EF3FF0612FF2EFA6
:0A7FF6003FF0602FF0EF3FF01200A3
:020000040030CA
:0400000000091F1EB6
:020005008181F7
:060008000FC00FE00F40E5
:00000001FF
